:030000000201A357
:0C01A300787FE4F6D8FD7581200201EAA7
:06046C0001110001120065
:10000E00D2AF7F017E0012022F7F807E2512040365
:05001E0012045080FBFC
:10042D008B088A09890AAF050D8F82758300740DBB
:10043D00120051AF050D8F82758300740A120051A1
:03044D000203D3D4
:10022F00750B00750A1075090E750800E4FCFDAB1F
:10023F000BAA0AA909A808120073E47BE87A03F94C
:10024F00F81200FE8F0B8E0A8D098C08C3E4950BF4
:10025F00F50BE4950AF50A74019509F509E495087B
:10026F00F508E50B2421F50BE4350AF50AE4350909
:10027F00F509E43508F508AF0BAE0AAD09FC7808AF
:10028F001201908F11850B125389F043890185114B
:08029F008C85128AD2A9D28CD1
:0102A7002234
:03000B000202EC02
:1002EC00C0E0C0F0C083C082C0D075D000C000C0D8
:1002FC0001C002C003C004C005C006C00785118C34
:10030C0085128A7F0112032FD007D006D005D004A6
:10031C00D003D002D001D000D0D0D082D083D0F086
:03032C00D0E032EC
:0D047200C100C101011000010E00010F00CA
:10040300C29775985053890F438920AB07AA06E416
:10041300F9F87F807E70FDFC1202A8EFF404F58DDD
:0A042300858D8BC2ABD2ACD28E22C5
:0B0480000000000000000000DFF6227A
:1003D3008B0B8A0C890DD297AF051DEF601AC201F2
:1003E300AB0B050DE50DAA0C7002050C14F91200F8
:1003F30026F5992001E280FB7F05120480C2972233
:060367008B088A09890AD7
:10036D00EDD395104002AD10E4FFEFC39D501B740B
:10037D00002FF8E2FEAB08050AE50AAA097002058E
:0F038D000914F9EE12003F0F80E0E4F510AF0500
:01039C00223E
:10032F00E510D39400748094804029E50E65106029
:10033F000785100EE4F50F22E50FC3941E74809409
:10034F00805014EF250FF50FC3941E7480948040D6
:07035F0006D20022E4F50EB6
:010366002274
:10045000300018C2007BFE7A0079407D26120367C7
:0B046000AD077BFE7A00794012042DEE
:01046B00226E
:0300230002039D38
:10039D00C0E0C0D075D000C000C007309818C2981A
:1003AD00C3E510944074809480500BAF1005107409
:1003BD00002FF8E599F2309904C299D201D007D0F7
:0603CD0000D0D0D0E032A8
:1001AF0002000EE493A3F8E493A34003F68001F258
:1001BF0008DFF48029E493A3F85407240CC8C33351
:1001CF00C4540F4420C8834004F456800146F6DF20
:1001DF00E4800B010204081020408090046CE47E40
:1001EF00019360BCA3FF543F30E509541FFEE49315
:1001FF00A360010ECF54C025E060A840B8E493A3DC
:10020F00FAE493A3F8E493A3C8C582C8CAC583CA06
:10021F00F0A3C8C582C8CAC583CADFE9DEE780BEBE
:01047F00007C
:10002600BB010689828A83E0225002E722BBFE02D8
:09003600E32289828A83E493220B
:10003F00BB010689828A83F0225002F722BBFE01A0
:02004F00F3229A
:10005100F8BB010DE58229F582E5833AF583E8F0E5
:10006100225006E92582C8F622BBFE05E92582C891
:02007100F22279
:10007300E88FF0A4CC8BF0A42CFCE98EF0A42CFC2C
:100083008AF0EDA42CFCEA8EF0A4CDA8F08BF0A4AA
:100093002DCC3825F0FDE98FF0A42CCD35F0FCEB09
:1000A3008EF0A4FEA9F0EB8FF0A4CFC5F02ECD39CE
:0F00B300FEE43CFCEAA42DCE35F0FDE43CFC223B
:1000C20075F008758200EF2FFFEE33FECD33CDCCF5
:1000D20033CCC58233C5829BED9AEC99E582984078
:1000E2000CF582EE9BFEED9AFDEC99FC0FD5F0D655
:1000F200E4CEFBE4CDFAE4CCF9A88222B800C1B97F
:100102000059BA002DEC8BF084CFCECDFCE5F0CBBC
:10011200F97818EF2FFFEE33FEED33FDEC33FCEBF5
:1001220033FB10D703994004EB99FB0FD8E5E4F9B0
:10013200FA227818EF2FFFEE33FEED33FDEC33FC9D
:10014200C933C910D7059BE99A4007EC9BFCE99A91
:10015200F90FD8E0E4C9FAE4CCFB2275F010EF2FD6
:10016200FFEE33FEED33FDCC33CCC833C810D707D6
:100172009BEC9AE899400AED9BFDEC9AFCE899F811
:0E0182000FD5F0DAE4CDFBE4CCFAE4C8F922A4
:1002A800C2D5E830E70FB2D5E4C39BFBE49AFAE481
:1002B80099F9E498F8EC30E717B2D51202DE12008B
:1002C800FEE4C39BFBE49AFAE499F9E498F8800306
:1002D8001200FE30D50DE4C39FFFE49EFEE49DFDB1
:0402E800E49CFC2274
:10019000E8600FECC313FCED13FDEE13FEEF13FF4D
:0301A000D8F12271
:00000001FF
