:03000000020751A3
:0C075100787FE4F6D8FD75817F020798E0
:10094C0031053001001305300100090530010004A8
:10095C0005300100010738020001053001000005D7
:10096C00300100000110010020F10203040506070C
:10082C00C103C101C102C100C107C106C105C10498
:10083C00062C53656E643A00094F52656365697600
:10084C00653A0005322049443A000725204461747A
:10085C00613A0003220D0A00083F0001020304055F
:0C086C00062708470001020304050627C8
:090A5B00D2BAD28AD2AAD2AF228B
:030013000207DD04
:0D07DD00C0E0C0F0C083C082C0D075D0085D
:1007EA007F2C120A47EF30E702D203EF30E602D23B
:1007FA0001EF30E502D202EF30E402D200EF30E33B
:10080A0002D207EF30E202D206EF30E102D205EF60
:07081A0030E002B290D204AD
:0B082100D0D0D082D083D0F0D0E032E5
:06069B008B108A11891288
:1006A100AF161516EF7003020747AB13AA14A9156D
:1006B10012031BC4540FFFD3940974809480501209
:1006C100EF2430FEAB100512E512AA1170140511CA
:1006D1008010EF2437FEAB100512E512AA1170024B
:1006E100051114F9EE120361AB13AA14A915120333
:1006F1001B540FFFD39409748094805012EF24305F
:10070100FFAB100512E512AA11701405118010EF4C
:100711002437FFAB100512E512AA1170020511145E
:10072100F9EF120361AB100512E512AA117002056F
:100731001114F9742012036174012515F515E435BE
:1007410014F5140206A1AB10AA11A912E402036167
:08090A008E678F688D698B6A0E
:100912007B007A00796E7D177C001209EB7B007AEE
:100922000079227D037C001209EB7FE87E03120A24
:100932000BAE67AF68E4FCFD856977856A78856BE5
:0A09420079856C7A856D7B02002632
:1004D400E4755DFD755C07F55BF55AF55E785F7C48
:1004E40000FD7BFF7A097974FE7F081202F5120A77
:1004F4002A120A5B7BFF7A0979601203CCE4F5586F
:10050400F559AE5CAF5D756B00756C00756D5F7B06
:1005140008AD5E12090AE55D2401F55DE4355CF57C
:100524005CE4355BF55BE4355AF55AE55E70047FAF
:100534000180027F008F5E7FE87E03120A0B05595B
:10054400E55970020558C39402E558940040B37FFE
:10055400D07E07120A0B30042FC2047F47120A47C9
:10056400EF54057B007A00793F60047F7080027F3E
:10057400601208C57B007A00793F7D0E7C00120969
:10058400EB7FD07E07120A0B300521C2057B007A6F
:1005940000793F7F701208C57B007A00793F7D0E99
:1005A4007C001209EB7FD07E07120A0B7FD07E07F6
:0505B400120A0B80A1FA
:10087B00303132333435363738393A3B3C3D4041F1
:10088B0042434445464748494A4B4C4D50515253BD
:10089B005455565758595A5B5C5D000102030405C9
:1008AB00060708090A0B101112131415161718193D
:0A08BB001A1B2021222324252627E2
:100A0B00D3EF9400EE94004015E4FDFC0DBD000106
:0E0A1B000CED64644C70F5EF1F70E51E80E278
:010A290022AA
:1009CA00E4FFC295FEEEC39408748094805011D25D
:1009DA0095EF25E0FFA293E4334207C2950E80E526
:0109EA0022EA
:10097C00E4FEEEC3940874809480501AC295A806C5
:10098C00EF088002C333D8FC30E704D2948002C253
:08099C0094D2950E80DCC29597
:0109A4002230
:0F09A500AF6BAE6AAD69AC681203A6AD07AF6762
:1009B400AC07C2927F0212097CAF0412097CAF0516
:0609C40012097CD2922210
:020A4700AD07F9
:100A4900C2927F0312097CAF0512097C1209CAD22E
:010A5900920A
:010A5A002279
:0A001600C2927FC012097CD2922230
:1005B9008F67E47FFF7E07FDFCAB6BAA6AA969A878
:1005C90068D31203955046E56C6010E4FDAF6712DD
:1005D90009B4E56704FF7D0802066B78031209A5D3
:1005E900E56704FFC007E56B5407FFE4FEFDFC78EF
:1005F900051203B9AD07D0071209B4E5672402FF54
:10060900E4FD1209B4E5672403FF02069778151281
:1006190009A5E56704FFC007AF6BAE6AAD69AC68B1
:1006290078121203A6EF5407FFE4FEFDFC780512C9
:1006390003B9C004C005C006C007AF6BAE6AAD6997
:10064900AC6878101203A6EF5403FFD003D002D090
:1006590001D000EB4FFFEAFEE8FCEF4408FFAD07CD
:10066900D0071209B4E5672402FFC007AF6BAE6A71
:10067900AD69AC6878081203A6AD07D0071209B4B2
:10068900E5672403FFC007E56BFFAD07D007120933
:02069900B42289
:1003CC00E4FF1200167F017E00120A0B900004124B
:1003DC000334FF12031B4FFD7F2A1209B490000255
:1003EC001203344480FF9000011203344FFD7F2927
:1003FC001209B49000031203344480FD7F281209C3
:10040C00B47D067F601209B4E4F56B756A01F56979
:10041C00F568756C01FF1205B9E4756BFE756A071A
:10042C00F569F568F56C7F041205B9E4756BFF7519
:10043C006A07F569F568F56C7F201205B9E4F56B70
:10044C00756A08F569F568756C017F081205B97451
:10045C00FFF56BF56AF56975681F756C017F1012F5
:10046C0005B9E4756BFF756A07F569F568F56C7F7E
:10047C00141205B9E4F56BF56AF569F568F56C7F4E
:10048C00181205B9756BFE756AFF7569FF75681FE3
:10049C00E4F56C7F241205B9E4FD7F2C1209B47DC0
:1004AC00037F2B1209B40D7F0F1209B47F0E120AB1
:1004BC0047EF7E0060047F0180027F00EF4E6007F3
:0704CC007D047F0F1209B44B
:0104D3002206
:080026008F768E758D748C73CA
:10002E007F30120A47EF20E20280287F40120A47F3
:10003E00EF20E20B757CFF757D08757E89801D7F34
:10004E0050120A47EF20E20B757CFF757D08757E16
:10005E00978009757CFF757D08757E7BAB7CAA7DCC
:10006E00A97E900005120334FFAD781209B4E47F27
:10007E00FF7E07FDFCAB76AA75A974A873D3120395
:10008E0095400302011CE577AB7CAA7DA97E90000A
:10009E0001601B120334FFE4FD1209B4AB7CAA7D90
:1000AE00A97E900002120334FF7D0802019812030C
:1000BE0034FFC007AF76AE75AD74AC737803120320
:1000CE00A6AD07D0071209B4AB7CAA7DA97E90001D
:1000DE0002120334FFC007E5765407FFE4FEFDFC71
:1000EE0078051203B9AD07D0071209B4AB7CAA7D0F
:1000FE00A97E900003120334FFE4FD1209B4AB7C19
:10010E00AA7DA97E900004120334FF0201D4AB7CB9
:10011E00AA7DA97E900001120334FFC007AF76AE10
:10012E0075AD74AC7378151203A6AD07D00712091E
:10013E00B4AB7CAA7DA97E900002120334FFC007E7
:10014E00AF76AE75AD74AC7378121203A6EF54078A
:10015E00FFE4FEFDFC78051203B9C004C005C0061D
:10016E00C007AF76AE75AD74AC7378101203A6EF00
:10017E005403FFD003D002D001D000EB4FFFEAFEB4
:10018E00E8FCEF4408FFAD07D0071209B4AB7CAA18
:10019E007DA97E900003120334FFC007AF76AE75C3
:1001AE00AD74AC7378081203A6AD07D0071209B46C
:1001BE00AB7CAA7DA97E900004120334FFC007E534
:1001CE0076FFAD07D0071209B4E4F57FE57FD3952E
:1001DE00785030E57F9408748094805026AB7CAACA
:1001EE007DA97E900006120334257FFFAB79AA7A93
:1001FE00A97B857F82758300120334FD1209B40535
:10020E007F80C9C292AB7CAA7DA97E12031BFF7DA3
:06021E00081209B4D2929F
:0102240022B7
:0808C5008F678B688A69896A5C
:1008CD00E4FCECC3940E748094805019E5672CFF02
:1008DD00120A47AB68AA69A96A8C82758300EF1268
:1008ED0003730C80DDE567FB7A006460700280069F
:0C08FD00EB64704A7006FD7F2C1209B4F9
:0109090022CB
:02087800C108B5
:100A2A00C2AF53890F438920759850758DFA758B1B
:0D0A3A00FA438780D2ACD28ED29CD2AF227C
:03002300020003D5
:0B000300309803C29832C299C2083244
:080A64008F99D2082008FD2241
:1009EB008D18D3E518940074809480401212031B69
:1009FB00FF120A64740129F9E43AFA151880E3220C
:10075D000204D4E493A3F8E493A34003F68001F2DA
:10076D0008DFF48029E493A3F85407240CC8C3339D
:10077D00C4540F4420C8834004F456800146F6DF6C
:10078D00E4800B010204081020408090082CE47EC8
:10079D00019360BCA3FF543F30E509541FFEE49361
:1007AD00A360010ECF54C025E060A840B8E493A328
:1007BD00FAE493A3F8E493A3C8C582C8CAC583CA53
:1007CD00F0A3C8C582C8CAC583CADFE9DEE780BE0B
:01087A00007D
:10022500E709F608DFFA8046E709F208DFFA803EBB
:1002350088828C83E709F0A3DFFA8032E309F608A8
:10024500DFFA8078E309F208DFFA807088828C8310
:10025500E309F0A3DFFA806489828A83E0A3F608C4
:10026500DFFA805889828A83E0A3F208DFFA804C9E
:1002750080D280FA80C680D4806980F28033801075
:1002850080A680EA809A80A880DA80E280CA8033DE
:1002950089828A83ECFAE493A3C8C582C8CCC58356
:1002A500CCF0A3C8C582C8CCC583CCDFE9DEE78026
:1002B5000D89828A83E493A3F608DFF9ECFAA9F0A5
:1002C500EDFB2289828A83ECFAE0A3C8C582C8CCFB
:1002D500C583CCF0A3C8C582C8CCC583CCDFEADE14
:1002E500E880DB89828A83E493A3F208DFF980CC76
:1002F50088F0EF60010E4E60C388F0ED2402B4046F
:100305000050B9F582EB2402B4040050AF23234515
:06031500822390027573C3
:10031B00BB010689828A83E0225002E722BBFE02E0
:09032B00E32289828A83E4932213
:10033400BB010CE58229F582E5833AF583E022507E
:1003440006E92582F8E622BBFE06E92582F8E222C8
:0D035400E58229F582E5833AF583E49322E2
:10036100BB010689828A83F0225002F722BBFE017B
:02037100F32275
:10037300F8BB010DE58229F582E5833AF583E8F0C0
:10038300225006E92582C8F622BBFE05E92582C86C
:02039300F22254
:10039500EB9FF5F0EA9E42F0E99D42F0E89C45F0BE
:0103A5002235
:1003A600E8600FECC313FCED13FDEE13FEEF13FF35
:0303B600D8F12259
:1003B900E8600FEFC333FFEE33FEED33FDEC33FCA2
:0303C900D8F12246
:00000001FF
