:0300000002037682
:0C037600787FE4F6D8FD75812D0203BDF0
:1004ED003F065B4F666D7D077F6F777C395E797157
:0704FD0000DFEFF7FBFDFE3D
:100504000625000000000000012D00022B00000160
:020514002400C1
:08000E008F0F8E0E8D0D8C0C7E
:10001600AF13AE12AD11AC10AB13AA12A911A810F2
:100026001202488F178E168D158C14AF13AE12ADB3
:1000360011AC10AB13AA12A911A810120248AB13E7
:10004600AA12A911A8101202488F1B8E1A8D198C9C
:1000560018AF13AE12AD11AC10AB13AA12A911A8AA
:1000660010120248AB13AA12A911A810120248AB2B
:1000760013AA12A911A8101202488F1F8E1E8D1DD9
:100086008C1CAF13AE12AD11AC10AB13AA12A91192
:10009600A810120248AB13AA12A911A810120248FE
:1000A600AB13AA12A911A810120248AB13AA12A9DF
:1000B60011A8101202488F238E228D218C20AB139B
:1000C600AA12A911A810AF0FAE0EAD0DAC0C1202FC
:1000D600D374ED2BF58274043AF583E493F525AFDA
:1000E60013AE12AD11AC10AB0FAA0EA90DA80CC31E
:1000F600120365402EAB13AA12A911A810AF0FAEBA
:100106000EAD0DAC0C1202D3AB13AA12A911A81096
:100116001202D374ED2BF58274043AF583E493F559
:10012600268003E4F526AF17AE16AD15AC14AB0F5B
:10013600AA0EA90DA80CC3120365402EAB17AA166A
:10014600A915A814AF0FAE0EAD0DAC0C1202D3ABB1
:1001560013AA12A911A8101202D374ED2BF58274FA
:10016600043AF583E493F5278003E4F527AF1BAE45
:100176001AAD19AC18AB0FAA0EA90DA80CC3120321
:1001860065402EAB1BAA1AA919A818AF0FAE0EAD63
:100196000DAC0C1202D3AB13AA12A911A8101202AD
:1001A600D374ED2BF58274043AF583E493F5288035
:1001B60003E4F528AF1FAE1EAD1DAC1CAB0FAA0E97
:1001C600A90DA80CC3120365402EAB1FAA1EA91DBC
:1001D600A81CAF0FAE0EAD0DAC0C1202D3AB13AA1A
:1001E60012A911A8101202D374ED2BF58274043AE9
:1001F600F583E493F5298003E4F529AF23AE22AD18
:1002060021AC20AB0FAA0EA90DA80CC312036540A2
:100216002DAB23AA22A921A820AF0FAE0EAD0DAC9F
:100226000C1202D3AB13AA12A911A8101202D3748E
:10023600ED2BF58274043AF583E493F52A22E4F56E
:010246002A8D
:010247002294
:10040200E4F580E52D9004FE93FFF580C2A7D2A704
:10041200E4F5807425252DF8E6FEF580C2A6D2A665
:10042200E52D24FB7014E4F5808F80C2A7D2A7F5D6
:10043200808E80C2A6D2A6F52D22E4F580E52D900D
:1004420004FE93F580C2A7D2A7E4F5807425252D7A
:0B045200F8E6F580C2A6D2A6052D2218
:10045D00E4750B10F50AF509F508758901758CFC25
:10046D00758A67D2AFD2A9D28CE524640170FAF5F2
:10047D0024E50B2401F50BE4350AF50AE43509F5FD
:10048D0009E43508F508E4751310F512F511F510AA
:0D049D00AF0BAE0AAD09AC0812000E80CC0A
:03000B000204AA42
:1004AA00C0E0C083C082C0D075D000C000C006C002
:1004BA0007758CFC758A67052CE52C7002052BC321
:1004CA0094E8E52B94034009752B00752C007524DC
:1004DA0001120402D007D006D000D0D0D082D08337
:0304EA00D0E0322D
:1003820002045DE493A3F8E493A34003F68001F230
:1003920008DFF48029E493A3F85407240CC8C3337C
:1003A200C4540F4420C8834004F456800146F6DF4B
:1003B200E4800B0102040810204080900504E47ED2
:1003C200019360BCA3FF543F30E509541FFEE49340
:1003D200A360010ECF54C025E060A840B8E493A307
:1003E200FAE493A3F8E493A3C8C582C8CAC583CA32
:1003F200F0A3C8C582C8CAC583CADFE9DEE780BEEA
:0105160000E4
:10024800E88FF0A4CC8BF0A42CFCE98EF0A42CFC55
:100258008AF0EDA42CFCEA8EF0A4CDA8F08BF0A4D3
:100268002DCC3825F0FDE98FF0A42CCD35F0FCEB32
:100278008EF0A4FEA9F0EB8FF0A4CFC5F02ECD39F7
:0F028800FEE43CFCEAA42DCE35F0FDE43CFC2264
:1002970075F008758200EF2FFFEE33FECD33CDCC1E
:1002A70033CCC58233C5829BED9AEC99E5829840A1
:1002B7000CF582EE9BFEED9AFDEC99FC0FD5F0D67E
:1002C700E4CEFBE4CDFAE4CCF9A88222B800C1B9A8
:1002D7000059BA002DEC8BF084CFCECDFCE5F0CBE6
:1002E700F97818EF2FFFEE33FEED33FDEC33FCEB1F
:1002F70033FB10D703994004EB99FB0FD8E5E4F9DA
:10030700FA227818EF2FFFEE33FEED33FDEC33FCC6
:10031700C933C910D7059BE99A4007EC9BFCE99ABA
:10032700F90FD8E0E4C9FAE4CCFB2275F010EF2FFF
:10033700FFEE33FEED33FDCC33CCC833C810D707FF
:100347009BEC9AE899400AED9BFDEC9AFCE899F83A
:0E0357000FD5F0DAE4CDFBE4CCFAE4C8F922CD
:10036500EB9FF5F0EA9E42F0E99D42F0E89C45F0EE
:010375002265
:00000001FF
